:1000000094C00000ADC00000ABC00000A9C000005B
:10001000A7C00000A5C00000A3C00000A1C0000050
:100020009FC000009DC000009BC00000AFC3000047
:1000300054C4000095C0000093C0000091C00000AF
:100040008FC000008DC000008BC0000089C0000080
:1000500087C0000085C0000083C0000081C0000090
:100060007FC000007DC000007BC0000079C00000A0
:1000700077C00000D004F204DE05F204DE05370587
:100080005405DE05A605B80518034100720064009A
:10009000750069006E006F00200055006E006F0053
:1000A00000003203410072006400750069006E00B8
:1000B0006F00200028007700770077002E00610095
:1000C00072006400750069006E006F002E0063000E
:1000D0006300290000000403090409023E00020134
:1000E00000C03209040000010202010005240001E1
:1000F00010042402060524060001070582030800F7
:10010000FF09040100020A00000007050402400084
:1001100001070583024000011201100102000008DE
:1001200041233B0001000102DC0111241FBECFEF7F
:10013000D2E0DEBFCDBF11E0A0E0B1E0EAECFEE02E
:1001400002C005900D92A631B107D9F721E0A6E1D2
:10015000B1E001C01D92A632B207E1F716D0B3C6D6
:100160004FCF84B7877F84BF0FB6F894A89580914E
:100170006000886180936000109260000FBEFBD227
:1001800084E085BD5F9A579A0895EBDF78941092CA
:100190001601229A219A239A2A9A80E091E040D669
:1001A00097FDA1C0809319018634F1F068F4823381
:1001B00009F462C020F4813309F442C089C081345B
:1001C000D1F0843409F184C0833709F442C030F49B
:1001D0008F3409F476C0813701F17AC0853731F167
:1001E000863709F43FC074C0909116012091180120
:1001F000809117015AC08091180181FD47C02B9A48
:1002000080911801826040C08091180181FF3EC03A
:100210002B98809118018D7F37C08091180181FD46
:100220000FC02B9A80911801826008C0809118013C
:1002300081FF06C02B98809118018D7F8093180153
:100240008091180180FD22C0299A80911801816057
:100250001BC08091180181FD0FC02B9A809118015D
:10026000826008C08091180181FF06C02B988091A0
:1002700018018D7F809318018091180180FF06C0BE
:100280002998809118018E7F809318018091170121
:10029000880F880F90911801892B80931701809106
:1002A00016018F5F8093160113C0943028F4880FD5
:1002B000880F822B9F5FF9CF8093170190931601CF
:1002C00007C085B1857F85B910921801109216017B
:1002D00080911601843039F46091170180E091E03B
:1002E00040D51092160180E091E08CD574D455CFA2
:1002F00080E091E0ECC480E091E07FC40F931F9315
:10030000CF938C01FC018489813021F0823021F46B
:10031000C0E203C0C0E301C0C0E0F80183898230BD
:1003200009F4C860F8018589873031F0883031F0F0
:10033000863029F4C26003C0C46001C0C660109258
:10034000C9001092C8001092CA00F80127853089B0
:10035000418952892115F1EE3F074105510581F090
:10036000DA01C901B695A79597958795BC01CD018E
:1003700060587B47814E9F4F7ED52150310902C086
:1003800020E130E03093CD002093CC00C093CA0030
:10039000F80187859089A189B2898115914EA105BF
:1003A000B10511F082E001C080E08093C80088E9C7
:1003B0008093C900CF911F910F910895FC0185850D
:1003C00080FF02C05F9808955F9A0895292F332710
:1003D0002230310559F02330310569F021303105E3
:1003E000F9F482E190E028E131E01EC08EE390E074
:1003F0002AED30E019C099278130910541F0823013
:10040000910541F0892B61F4E6EDF0E005C0E2EAE8
:10041000F0E002C0E8E8F0E0849190E09F0104C0C1
:1004200080E090E020E030E0FA01318320830895FD
:10043000AC0128E030E080E02417350720F48F5F1E
:10044000220F331FF9CF8295807F08958093E900B2
:10045000EBEEF0E0808181608083EDEEF0E01082D1
:100460006093EC0040838091EE00881F8827881FEE
:1004700008951092F40080E08093E9001092F0005B
:100480001092E8001092ED009091EB009E7F909307
:10049000EB008F5F853081F7089580911E0187FF03
:1004A0000FC08091E80082FD04C08EB38111F9CFA6
:1004B00010C08091E8008B770AC08EB3882349F082
:1004C0008091E80080FFF9CF8091E8008E778093DB
:1004D000E800089585E69091EC0090FF05C09091AA
:1004E000E80090FF05C01BC09091E80092FD17C086
:1004F0009EB39923B1F09EB39530A9F09091EB0093
:1005000095FD13C09091E10092FFE5CF9091E1003D
:100510009B7F9093E1008150F1F684E0089580E0A4
:10052000089582E0089583E0089581E00895209180
:100530002401309125012617370748F06115710510
:1005400039F42091E8002E772093E80001C0B9012A
:1005500030E06115710561F12091E80023FD37C09D
:100560002091E80022FD2DC02EB3222391F12EB35D
:10057000253089F12091E80020FFEBCF2091F20097
:10058000FC01CF016115710549F0283038F48191E3
:100590008093F100615071092F5FF3CF31E0283073
:1005A00009F030E02091E8002E772093E800D1CFC9
:1005B0003111D2CF06C08EB3882359F08EB3853067
:1005C00051F08091E80082FFF6CF80E0089581E04D
:1005D000089582E0089583E00895209124013091E8
:1005E00025012617370748F06115710539F4209168
:1005F000E8002E772093E80001C0B90130E06115D2
:10060000710569F12091E80023FD38C02091E800D0
:1006100022FD2EC02EB3222399F12EB3253091F165
:100620002091E80020FFEBCF2091F200FC01CF01E8
:100630006115710551F0283040F484918093F100E8
:10064000615071092F5F3196F2CF31E0283009F007
:1006500030E02091E8002E772093E800D0CF3111D0
:10066000D1CF06C08EB3882359F08EB3853051F0B8
:100670008091E80082FFF6CF80E0089581E0089540
:1006800082E0089583E008956115710529F42091B1
:10069000E8002B772093E8006115710511F1209196
:1006A000E80023FD24C02EB3222319F12EB32530F8
:1006B00011F12091E80022FFEFCF2091F2002223D8
:1006C00031F301962091F100FC01319720836150B4
:1006D000710999F7DCCF8EB3882359F08EB385303A
:1006E00051F08091E80080FFF6CF80E0089581E02E
:1006F000089582E0089583E0089542D044D01EBA60
:1007000010921C0110921B0110921A0184E089BD05
:1007100089B5826089BD09B400FEFDCF8091D80003
:10072000982F9F779093D80080688093D80080910D
:1007300063008E7F809363008091D8008F7D8093CB
:10074000D8008091E0008E7F8093E0008091E100EE
:100750008E7F8093E1008091E20081608093E200CF
:100760008091E100877F8093E1008091E2008860C2
:100770008093E2000895C1DF81E080931D01089518
:100780001092E20008951092E10008951F920F92D6
:100790000FB60F9211242F933F934F935F936F9354
:1007A0007F938F939F93AF93BF93EF93FF9380912A
:1007B000E10080FF1BC08091E20080FF17C08091A4
:1007C000E1008E7F8093E1008091E2008E7F809334
:1007D000E2008091E20080618093E2008091D80085
:1007E00080628093D80019BC1EBAF4D18091E100D8
:1007F00084FF29C08091E20084FF25C084E089BD88
:1008000089B5826089BD09B400FEFDCF8091D80012
:100810008F7D8093D8008091E1008F7E8093E100EE
:100820008091E2008F7E8093E2008091E2008160FF
:100830008093E20080911C01811102C081E001C01F
:1008400084E08EBBC7D18091E10083FF27C08091F7
:10085000E20083FF23C08091E100877F8093E10065
:1008600082E08EBB10921C018091E1008E7F80930C
:10087000E1008091E2008E7F8093E2008091E200AF
:1008800080618093E200F5DD42E060E080E0DEDD43
:100890008091F00088608093F0009CD18091E1000D
:1008A00082FF0AC08091E20082FF06C08091E100D1
:1008B0008B7F8093E1008ED1FF91EF91BF91AF913B
:1008C0009F918F917F916F915F914F913F912F9168
:1008D0000F900FBE0F901F9018951F920F920FB69A
:1008E0000F921124FF920F931F932F933F934F93D7
:1008F0005F936F937F938F939F93AF93BF93CF93A8
:10090000DF93EF93FF93C9EED0E088818770F82ED4
:10091000188200EF10E0F8018081877F808378944F
:100920001DD0F8941882F801808188608083F88255
:10093000FF91EF91DF91CF91BF91AF919F918F91F7
:100940007F916F915F914F913F912F911F910F91E7
:10095000FF900F900FBE0F901F9018951F93CF938D
:10096000DF93CDB7DEB7AA970FB6F894DEBF0FBE00
:10097000CDBFEEE1F1E088E08E0F9091F100919310
:100980008E13FBCF80911E0190911F01492F50E0E3
:100990004A30510508F012C1FA01E65CFF4F8DC2E2
:1009A000803881F0823809F009C180912201877076
:1009B0008093E9008091EB0085FB882780F91092F5
:1009C000E90006C080911A0190911B01911182608B
:1009D0009091E800977F9093E8008093F100109247
:1009E000F100BFC0282F2D7F09F0E8C0882319F03F
:1009F000823061F0D4C080912001813009F0CFC0F5
:100A0000933009F080E080931B012BC0809120017E
:100A1000811127C080912201877009F4C0C08093A2
:100A2000E9002091EB0020FFBAC0933021F48091BF
:100A3000EB00806214C09091EB0090619093EB000A
:100A400021E030E0A90102C0440F551F8A95E2F76A
:100A50004093EA001092EA008091EB008860809356
:100A6000EB001092E9008091E800877F7DC0811142
:100A7000A5C0109120018091E800877F8093E80055
:100A80000CDD8091E80080FD04C08EB38111F9CFA8
:100A900086C0812F8F7711F492E001C093E09EBB56
:100AA00080688093E3007BC08058823008F086C065
:100AB00080912001909121018C3D53E0950779F5BB
:100AC00083E08A838AE289833FB7F894DE01139634
:100AD00090E02EE041E2E22FF0E040935700E491F5
:100AE00090FF03C0E295EF702F5FEF7080E38E0FF1
:100AF0008A3310F0E95C01C0E82FF0E0ED93FD933C
:100B00009F5F943141F73FBF8091E800877F8093DA
:100B1000E8006AE270E0CE01019609DD11C0AE0185
:100B20004F5F5F4F6091220151DCBC01892BB9F10D
:100B30009091E800977F9093E80089819A814DDD3C
:100B40008091E8008B778093E80029C08038B1F568
:100B50008091E800877F8093E80080911C0180935A
:100B6000F1008091E8008E778093E80096DC17C052
:100B7000811124C090912001923088F48091E80086
:100B8000877F8093E80090931C0187DC80911C0193
:100B9000811102C083E001C084E08EBBA9DB80919B
:100BA000E80083FF0DC08091EB0080628093EB0032
:100BB0008091E800877F8093E80002C09CDBEFCF44
:100BC000AA960FB6F894DEBF0FBECDBFDF91CF91CE
:100BD0001F9108950895CF938EB3882359F0C09143
:100BE000E900C7701092E9008091E80083FDB6DE4D
:100BF000C093E900CF9108950895CF93DF9320919A
:100C0000E80023FF61C0FC01208130E04091220117
:100C1000509123014217530709F056C0EC0180910F
:100C20001F01813249F018F48032C9F04DC0823280
:100C300061F18332C9F148C080911E01813A09F007
:100C400043C08091E800877F8093E80067E070E010
:100C5000CF010F966CDC8091E8008B7713C08091F8
:100C60001E01813289F58091E800877F8093E8003A
:100C700067E070E0CF010F9607DDCE013FDB80918A
:100C8000E8008E778093E8001FC080911E018132BA
:100C9000D9F48091E800877F8093E800809120015B
:100CA0008587CF018BDB0DC080911E01813261F4FD
:100CB0008091E800877F8093E80060912001CF0158
:100CC0009BDFDF91CF91E9CBDF91CF9108950F9317
:100CD0001F93CF93DF93EC01FC013D9689E0DF0188
:100CE0001D928A95E9F78A819B812C81211102C08E
:100CF00010E001C014E009819BDB812B482F42608A
:100D000061E8802FA3DB882331F18E819F812885C4
:100D1000211102C010E001C014E00D8189DB812B9C
:100D2000482F426060E8802F91DB8823A1F08A85FC
:100D30009B852C85211102C010E001C014E0C985FB
:100D400077DB812B482F426061EC8C2FDF91CF91B4
:100D50001F910F917BCB80E0DF91CF911F910F917D
:100D600008950F931F93CF932EB32430F1F4FC0119
:100D70000785108921893289012B022B032BA9F0C9
:100D8000C62F81818093E9008091E80085FF04C02F
:100D9000C093F10080E00AC08091E8008E778093D4
:100DA000E80098DB8823A1F301C082E0CF911F9176
:100DB0000F9108952EB3243019F5FC014785508911
:100DC00061897289452B462B472BD1F08181809315
:100DD000E9008091F200882389F09091E8008091E9
:100DE000E8008E778093E80095FD08C073DB8111E1
:100DF00008C08091E8008E778093E80080E0089535
:100E000082E008952EB3243051F4FC0147855089C7
:100E100061897289452B462B472B09F0CBCF08956A
:100E20002EB3243019F08FEF9FEF0895FC01478512
:100E3000508961897289452B462B472BA1F3858107
:100E40008093E9008091E80082FFEDCF8091F2006D
:100E5000882321F02091F10030E002C02FEF3FEF16
:100E60008091F200811105C08091E8008B7780931A
:100E7000E800C9010895A1E21A2EAA1BBB1BFD01BF
:100E80000DC0AA1FBB1FEE1FFF1FA217B307E40769
:100E9000F50720F0A21BB30BE40BF50B661F771FC1
:100EA000881F991F1A9469F76095709580959095A1
:100EB0009B01AC01BD01CF010895EE0FFF1F05900E
:0A0EC000F491E02D0994F894FFCF9F
:100ECA000003400000044000000208000000000087
:060EDA0000000000000012
:00000001FF
